{
  "abi": [
    {
      "type": "constructor",
      "inputs": [
        {
          "name": "initialSupply",
          "type": "uint256",
          "internalType": "uint256"
        }
      ],
      "stateMutability": "nonpayable"
    },
    {
      "type": "function",
      "name": "CLOCK_MODE",
      "inputs": [],
      "outputs": [
        {
          "name": "",
          "type": "string",
          "internalType": "string"
        }
      ],
      "stateMutability": "view"
    },
    {
      "type": "function",
      "name": "DOMAIN_SEPARATOR",
      "inputs": [],
      "outputs": [
        {
          "name": "",
          "type": "bytes32",
          "internalType": "bytes32"
        }
      ],
      "stateMutability": "view"
    },
    {
      "type": "function",
      "name": "allowance",
      "inputs": [
        {
          "name": "owner",
          "type": "address",
          "internalType": "address"
        },
        {
          "name": "spender",
          "type": "address",
          "internalType": "address"
        }
      ],
      "outputs": [
        {
          "name": "",
          "type": "uint256",
          "internalType": "uint256"
        }
      ],
      "stateMutability": "view"
    },
    {
      "type": "function",
      "name": "approve",
      "inputs": [
        {
          "name": "spender",
          "type": "address",
          "internalType": "address"
        },
        {
          "name": "value",
          "type": "uint256",
          "internalType": "uint256"
        }
      ],
      "outputs": [
        {
          "name": "",
          "type": "bool",
          "internalType": "bool"
        }
      ],
      "stateMutability": "nonpayable"
    },
    {
      "type": "function",
      "name": "balanceOf",
      "inputs": [
        {
          "name": "account",
          "type": "address",
          "internalType": "address"
        }
      ],
      "outputs": [
        {
          "name": "",
          "type": "uint256",
          "internalType": "uint256"
        }
      ],
      "stateMutability": "view"
    },
    {
      "type": "function",
      "name": "checkpoints",
      "inputs": [
        {
          "name": "account",
          "type": "address",
          "internalType": "address"
        },
        {
          "name": "pos",
          "type": "uint32",
          "internalType": "uint32"
        }
      ],
      "outputs": [
        {
          "name": "",
          "type": "tuple",
          "internalType": "struct Checkpoints.Checkpoint208",
          "components": [
            {
              "name": "_key",
              "type": "uint48",
              "internalType": "uint48"
            },
            {
              "name": "_value",
              "type": "uint208",
              "internalType": "uint208"
            }
          ]
        }
      ],
      "stateMutability": "view"
    },
    {
      "type": "function",
      "name": "clock",
      "inputs": [],
      "outputs": [
        {
          "name": "",
          "type": "uint48",
          "internalType": "uint48"
        }
      ],
      "stateMutability": "view"
    },
    {
      "type": "function",
      "name": "decimals",
      "inputs": [],
      "outputs": [
        {
          "name": "",
          "type": "uint8",
          "internalType": "uint8"
        }
      ],
      "stateMutability": "view"
    },
    {
      "type": "function",
      "name": "delegate",
      "inputs": [
        {
          "name": "delegatee",
          "type": "address",
          "internalType": "address"
        }
      ],
      "outputs": [],
      "stateMutability": "nonpayable"
    },
    {
      "type": "function",
      "name": "delegateBySig",
      "inputs": [
        {
          "name": "delegatee",
          "type": "address",
          "internalType": "address"
        },
        {
          "name": "nonce",
          "type": "uint256",
          "internalType": "uint256"
        },
        {
          "name": "expiry",
          "type": "uint256",
          "internalType": "uint256"
        },
        {
          "name": "v",
          "type": "uint8",
          "internalType": "uint8"
        },
        {
          "name": "r",
          "type": "bytes32",
          "internalType": "bytes32"
        },
        {
          "name": "s",
          "type": "bytes32",
          "internalType": "bytes32"
        }
      ],
      "outputs": [],
      "stateMutability": "nonpayable"
    },
    {
      "type": "function",
      "name": "delegates",
      "inputs": [
        {
          "name": "account",
          "type": "address",
          "internalType": "address"
        }
      ],
      "outputs": [
        {
          "name": "",
          "type": "address",
          "internalType": "address"
        }
      ],
      "stateMutability": "view"
    },
    {
      "type": "function",
      "name": "eip712Domain",
      "inputs": [],
      "outputs": [
        {
          "name": "fields",
          "type": "bytes1",
          "internalType": "bytes1"
        },
        {
          "name": "name",
          "type": "string",
          "internalType": "string"
        },
        {
          "name": "version",
          "type": "string",
          "internalType": "string"
        },
        {
          "name": "chainId",
          "type": "uint256",
          "internalType": "uint256"
        },
        {
          "name": "verifyingContract",
          "type": "address",
          "internalType": "address"
        },
        {
          "name": "salt",
          "type": "bytes32",
          "internalType": "bytes32"
        },
        {
          "name": "extensions",
          "type": "uint256[]",
          "internalType": "uint256[]"
        }
      ],
      "stateMutability": "view"
    },
    {
      "type": "function",
      "name": "getPastTotalSupply",
      "inputs": [
        {
          "name": "timepoint",
          "type": "uint256",
          "internalType": "uint256"
        }
      ],
      "outputs": [
        {
          "name": "",
          "type": "uint256",
          "internalType": "uint256"
        }
      ],
      "stateMutability": "view"
    },
    {
      "type": "function",
      "name": "getPastVotes",
      "inputs": [
        {
          "name": "account",
          "type": "address",
          "internalType": "address"
        },
        {
          "name": "timepoint",
          "type": "uint256",
          "internalType": "uint256"
        }
      ],
      "outputs": [
        {
          "name": "",
          "type": "uint256",
          "internalType": "uint256"
        }
      ],
      "stateMutability": "view"
    },
    {
      "type": "function",
      "name": "getVotes",
      "inputs": [
        {
          "name": "account",
          "type": "address",
          "internalType": "address"
        }
      ],
      "outputs": [
        {
          "name": "",
          "type": "uint256",
          "internalType": "uint256"
        }
      ],
      "stateMutability": "view"
    },
    {
      "type": "function",
      "name": "name",
      "inputs": [],
      "outputs": [
        {
          "name": "",
          "type": "string",
          "internalType": "string"
        }
      ],
      "stateMutability": "view"
    },
    {
      "type": "function",
      "name": "nonces",
      "inputs": [
        {
          "name": "owner",
          "type": "address",
          "internalType": "address"
        }
      ],
      "outputs": [
        {
          "name": "",
          "type": "uint256",
          "internalType": "uint256"
        }
      ],
      "stateMutability": "view"
    },
    {
      "type": "function",
      "name": "numCheckpoints",
      "inputs": [
        {
          "name": "account",
          "type": "address",
          "internalType": "address"
        }
      ],
      "outputs": [
        {
          "name": "",
          "type": "uint32",
          "internalType": "uint32"
        }
      ],
      "stateMutability": "view"
    },
    {
      "type": "function",
      "name": "permit",
      "inputs": [
        {
          "name": "owner",
          "type": "address",
          "internalType": "address"
        },
        {
          "name": "spender",
          "type": "address",
          "internalType": "address"
        },
        {
          "name": "value",
          "type": "uint256",
          "internalType": "uint256"
        },
        {
          "name": "deadline",
          "type": "uint256",
          "internalType": "uint256"
        },
        {
          "name": "v",
          "type": "uint8",
          "internalType": "uint8"
        },
        {
          "name": "r",
          "type": "bytes32",
          "internalType": "bytes32"
        },
        {
          "name": "s",
          "type": "bytes32",
          "internalType": "bytes32"
        }
      ],
      "outputs": [],
      "stateMutability": "nonpayable"
    },
    {
      "type": "function",
      "name": "symbol",
      "inputs": [],
      "outputs": [
        {
          "name": "",
          "type": "string",
          "internalType": "string"
        }
      ],
      "stateMutability": "view"
    },
    {
      "type": "function",
      "name": "totalSupply",
      "inputs": [],
      "outputs": [
        {
          "name": "",
          "type": "uint256",
          "internalType": "uint256"
        }
      ],
      "stateMutability": "view"
    },
    {
      "type": "function",
      "name": "transfer",
      "inputs": [
        {
          "name": "to",
          "type": "address",
          "internalType": "address"
        },
        {
          "name": "value",
          "type": "uint256",
          "internalType": "uint256"
        }
      ],
      "outputs": [
        {
          "name": "",
          "type": "bool",
          "internalType": "bool"
        }
      ],
      "stateMutability": "nonpayable"
    },
    {
      "type": "function",
      "name": "transferFrom",
      "inputs": [
        {
          "name": "from",
          "type": "address",
          "internalType": "address"
        },
        {
          "name": "to",
          "type": "address",
          "internalType": "address"
        },
        {
          "name": "value",
          "type": "uint256",
          "internalType": "uint256"
        }
      ],
      "outputs": [
        {
          "name": "",
          "type": "bool",
          "internalType": "bool"
        }
      ],
      "stateMutability": "nonpayable"
    },
    {
      "type": "event",
      "name": "Approval",
      "inputs": [
        {
          "name": "owner",
          "type": "address",
          "indexed": true,
          "internalType": "address"
        },
        {
          "name": "spender",
          "type": "address",
          "indexed": true,
          "internalType": "address"
        },
        {
          "name": "value",
          "type": "uint256",
          "indexed": false,
          "internalType": "uint256"
        }
      ],
      "anonymous": false
    },
    {
      "type": "event",
      "name": "DelegateChanged",
      "inputs": [
        {
          "name": "delegator",
          "type": "address",
          "indexed": true,
          "internalType": "address"
        },
        {
          "name": "fromDelegate",
          "type": "address",
          "indexed": true,
          "internalType": "address"
        },
        {
          "name": "toDelegate",
          "type": "address",
          "indexed": true,
          "internalType": "address"
        }
      ],
      "anonymous": false
    },
    {
      "type": "event",
      "name": "DelegateVotesChanged",
      "inputs": [
        {
          "name": "delegate",
          "type": "address",
          "indexed": true,
          "internalType": "address"
        },
        {
          "name": "previousVotes",
          "type": "uint256",
          "indexed": false,
          "internalType": "uint256"
        },
        {
          "name": "newVotes",
          "type": "uint256",
          "indexed": false,
          "internalType": "uint256"
        }
      ],
      "anonymous": false
    },
    {
      "type": "event",
      "name": "EIP712DomainChanged",
      "inputs": [],
      "anonymous": false
    },
    {
      "type": "event",
      "name": "Transfer",
      "inputs": [
        {
          "name": "from",
          "type": "address",
          "indexed": true,
          "internalType": "address"
        },
        {
          "name": "to",
          "type": "address",
          "indexed": true,
          "internalType": "address"
        },
        {
          "name": "value",
          "type": "uint256",
          "indexed": false,
          "internalType": "uint256"
        }
      ],
      "anonymous": false
    },
    {
      "type": "error",
      "name": "CheckpointUnorderedInsertion",
      "inputs": []
    },
    {
      "type": "error",
      "name": "ECDSAInvalidSignature",
      "inputs": []
    },
    {
      "type": "error",
      "name": "ECDSAInvalidSignatureLength",
      "inputs": [
        {
          "name": "length",
          "type": "uint256",
          "internalType": "uint256"
        }
      ]
    },
    {
      "type": "error",
      "name": "ECDSAInvalidSignatureS",
      "inputs": [
        {
          "name": "s",
          "type": "bytes32",
          "internalType": "bytes32"
        }
      ]
    },
    {
      "type": "error",
      "name": "ERC20ExceededSafeSupply",
      "inputs": [
        {
          "name": "increasedSupply",
          "type": "uint256",
          "internalType": "uint256"
        },
        {
          "name": "cap",
          "type": "uint256",
          "internalType": "uint256"
        }
      ]
    },
    {
      "type": "error",
      "name": "ERC20InsufficientAllowance",
      "inputs": [
        {
          "name": "spender",
          "type": "address",
          "internalType": "address"
        },
        {
          "name": "allowance",
          "type": "uint256",
          "internalType": "uint256"
        },
        {
          "name": "needed",
          "type": "uint256",
          "internalType": "uint256"
        }
      ]
    },
    {
      "type": "error",
      "name": "ERC20InsufficientBalance",
      "inputs": [
        {
          "name": "sender",
          "type": "address",
          "internalType": "address"
        },
        {
          "name": "balance",
          "type": "uint256",
          "internalType": "uint256"
        },
        {
          "name": "needed",
          "type": "uint256",
          "internalType": "uint256"
        }
      ]
    },
    {
      "type": "error",
      "name": "ERC20InvalidApprover",
      "inputs": [
        {
          "name": "approver",
          "type": "address",
          "internalType": "address"
        }
      ]
    },
    {
      "type": "error",
      "name": "ERC20InvalidReceiver",
      "inputs": [
        {
          "name": "receiver",
          "type": "address",
          "internalType": "address"
        }
      ]
    },
    {
      "type": "error",
      "name": "ERC20InvalidSender",
      "inputs": [
        {
          "name": "sender",
          "type": "address",
          "internalType": "address"
        }
      ]
    },
    {
      "type": "error",
      "name": "ERC20InvalidSpender",
      "inputs": [
        {
          "name": "spender",
          "type": "address",
          "internalType": "address"
        }
      ]
    },
    {
      "type": "error",
      "name": "ERC2612ExpiredSignature",
      "inputs": [
        {
          "name": "deadline",
          "type": "uint256",
          "internalType": "uint256"
        }
      ]
    },
    {
      "type": "error",
      "name": "ERC2612InvalidSigner",
      "inputs": [
        {
          "name": "signer",
          "type": "address",
          "internalType": "address"
        },
        {
          "name": "owner",
          "type": "address",
          "internalType": "address"
        }
      ]
    },
    {
      "type": "error",
      "name": "ERC5805FutureLookup",
      "inputs": [
        {
          "name": "timepoint",
          "type": "uint256",
          "internalType": "uint256"
        },
        {
          "name": "clock",
          "type": "uint48",
          "internalType": "uint48"
        }
      ]
    },
    {
      "type": "error",
      "name": "ERC6372InconsistentClock",
      "inputs": []
    },
    {
      "type": "error",
      "name": "InvalidAccountNonce",
      "inputs": [
        {
          "name": "account",
          "type": "address",
          "internalType": "address"
        },
        {
          "name": "currentNonce",
          "type": "uint256",
          "internalType": "uint256"
        }
      ]
    },
    {
      "type": "error",
      "name": "InvalidShortString",
      "inputs": []
    },
    {
      "type": "error",
      "name": "SafeCastOverflowedUintDowncast",
      "inputs": [
        {
          "name": "bits",
          "type": "uint8",
          "internalType": "uint8"
        },
        {
          "name": "value",
          "type": "uint256",
          "internalType": "uint256"
        }
      ]
    },
    {
      "type": "error",
      "name": "StringTooLong",
      "inputs": [
        {
          "name": "str",
          "type": "string",
          "internalType": "string"
        }
      ]
    },
    {
      "type": "error",
      "name": "VotesExpiredSignature",
      "inputs": [
        {
          "name": "expiry",
          "type": "uint256",
          "internalType": "uint256"
        }
      ]
    }
  ],
  "bytecode": {
    "object": "0x610160604052348015610010575f5ffd5b506040516127b43803806127b483398101604081905261002f91610836565b6040518060400160405280600d81526020016c2937ba30b930b1ba2a37b5b2b760991b81525080604051806040016040528060018152602001603160f81b8152506040518060400160405280600d81526020016c2937ba30b930b1ba2a37b5b2b760991b8152506040518060400160405280600381526020016252544360e81b81525081600390816100c191906108e4565b5060046100ce82826108e4565b506100de91508390506005610193565b610120526100ed816006610193565b61014052815160208084019190912060e052815190820120610100524660a05261017960e05161010051604080517f8b73c3c69bb8fe3d512ecc4cf759cc79239f7b179b0ffacaa9a75d522b39400f60208201529081019290925260608201524660808201523060a08201525f9060c00160405160208183030381529060405280519060200120905090565b60805250503060c0525061018d33826101c5565b50610a6e565b5f6020835110156101ae576101a783610202565b90506101bf565b816101b984826108e4565b5060ff90505b92915050565b6001600160a01b0382166101f35760405163ec442f0560e01b81525f60048201526024015b60405180910390fd5b6101fe5f838361023f565b5050565b5f5f829050601f8151111561022c578260405163305a27a960e01b81526004016101ea919061099e565b8051610237826109d3565b179392505050565b61024a83838361024f565b505050565b61025a8383836102b5565b6001600160a01b0383166102aa575f61027260025490565b90506001600160d01b03808211156102a757604051630e58ae9360e11b815260048101839052602481018290526044016101ea565b50505b61024a8383836103db565b6001600160a01b0383166102df578060025f8282546102d49190610a0a565b9091555061034f9050565b6001600160a01b0383165f90815260208190526040902054818110156103315760405163391434e360e21b81526001600160a01b038516600482015260248101829052604481018390526064016101ea565b6001600160a01b0384165f9081526020819052604090209082900390555b6001600160a01b03821661036b57600280548290039055610389565b6001600160a01b0382165f9081526020819052604090208054820190555b816001600160a01b0316836001600160a01b03167fddf252ad1be2c89b69c2b068fc378daa952ba7f163c4a11628f55a4df523b3ef836040516103ce91815260200190565b60405180910390a3505050565b6001600160a01b03831661040957610406600a61082c61046360201b1761040184610475565b6104ac565b50505b6001600160a01b0382166104325761042f600a6108376104e160201b1761040184610475565b50505b6001600160a01b038381165f9081526008602052604080822054858416835291205461024a929182169116836104ec565b5f61046e8284610a1d565b9392505050565b5f6001600160d01b038211156104a8576040516306dfcc6560e41b815260d06004820152602481018390526044016101ea565b5090565b5f806104d46104b961063c565b6104cc6104c58861064a565b868860201c565b879190610691565b915091505b935093915050565b5f61046e8284610a3c565b816001600160a01b0316836001600160a01b03161415801561050d57505f81115b1561024a576001600160a01b038316156105a5576001600160a01b0383165f9081526009602090815260408220829161055391906104e1901b6108371761040186610475565b6001600160d01b031691506001600160d01b03169150846001600160a01b03165f5160206127945f395f51905f52838360405161059a929190918252602082015260400190565b60405180910390a250505b6001600160a01b0382161561024a576001600160a01b0382165f908152600960209081526040822082916105e69190610463901b61082c1761040186610475565b6001600160d01b031691506001600160d01b03169150836001600160a01b03165f5160206127945f395f51905f52838360405161062d929190918252602082015260400190565b60405180910390a25050505050565b5f61064561069e565b905090565b80545f9080156106895761067083610663600184610a5b565b5f91825260209091200190565b54660100000000000090046001600160d01b031661046e565b5f9392505050565b5f806104d48585856106a8565b5f61064543610804565b82545f90819080156107a7575f6106c487610663600185610a5b565b805490915065ffffffffffff80821691660100000000000090046001600160d01b031690881682111561070a57604051632520601d60e01b815260040160405180910390fd5b8765ffffffffffff168265ffffffffffff160361074657825465ffffffffffff1666010000000000006001600160d01b03891602178355610799565b6040805180820190915265ffffffffffff808a1682526001600160d01b03808a1660208085019182528d54600181018f555f8f815291909120945191519092166601000000000000029216919091179101555b94508593506104d992505050565b50506040805180820190915265ffffffffffff80851682526001600160d01b0380851660208085019182528854600181018a555f8a81529182209551925190931666010000000000000291909316179201919091559050816104d9565b5f65ffffffffffff8211156104a8576040516306dfcc6560e41b815260306004820152602481018390526044016101ea565b5f60208284031215610846575f5ffd5b5051919050565b634e487b7160e01b5f52604160045260245ffd5b600181811c9082168061087557607f821691505b60208210810361089357634e487b7160e01b5f52602260045260245ffd5b50919050565b601f82111561024a57805f5260205f20601f840160051c810160208510156108be5750805b601f840160051c820191505b818110156108dd575f81556001016108ca565b5050505050565b81516001600160401b038111156108fd576108fd61084d565b6109118161090b8454610861565b84610899565b6020601f821160018114610943575f831561092c5750848201515b5f19600385901b1c1916600184901b1784556108dd565b5f84815260208120601f198516915b828110156109725787850151825560209485019460019092019101610952565b508482101561098f57868401515f19600387901b60f8161c191681555b50505050600190811b01905550565b602081525f82518060208401528060208501604085015e5f604082850101526040601f19601f83011684010191505092915050565b80516020808301519190811015610893575f1960209190910360031b1b16919050565b634e487b7160e01b5f52601160045260245ffd5b808201808211156101bf576101bf6109f6565b6001600160d01b0381811683821601908111156101bf576101bf6109f6565b6001600160d01b0382811682821603908111156101bf576101bf6109f6565b818103818111156101bf576101bf6109f6565b60805160a05160c05160e051610100516101205161014051611cd5610abf5f395f610c4101525f610c1401525f610a0601525f6109de01525f61093901525f61096301525f61098d0152611cd55ff3fe608060405234801561000f575f5ffd5b5060043610610148575f3560e01c806370a08231116100bf5780639ab24eb0116100795780639ab24eb0146102f4578063a9059cbb14610307578063c3cda5201461031a578063d505accf1461032d578063dd62ed3e14610340578063f1127ed814610378575f5ffd5b806370a08231146102645780637ecebe001461028c57806384b0196e1461029f5780638e539e8c146102ba57806391ddadf4146102cd57806395d89b41146102ec575f5ffd5b80633644e515116101105780633644e515146101c15780633a46b1a8146101c95780634bf5d7e9146101dc578063587cde1e146101e45780635c19a95c146102275780636fcfff451461023c575f5ffd5b806306fdde031461014c578063095ea7b31461016a57806318160ddd1461018d57806323b872dd1461019f578063313ce567146101b2575b5f5ffd5b6101546103b7565b6040516101619190611907565b60405180910390f35b61017d610178366004611934565b610447565b6040519015158152602001610161565b6002545b604051908152602001610161565b61017d6101ad36600461195c565b610460565b60405160128152602001610161565b610191610483565b6101916101d7366004611934565b610491565b6101546104cb565b61020f6101f2366004611996565b6001600160a01b039081165f908152600860205260409020541690565b6040516001600160a01b039091168152602001610161565b61023a610235366004611996565b610543565b005b61024f61024a366004611996565b610552565b60405163ffffffff9091168152602001610161565b610191610272366004611996565b6001600160a01b03165f9081526020819052604090205490565b61019161029a366004611996565b61055c565b6102a7610566565b60405161016197969594939291906119af565b6101916102c8366004611a45565b6105a8565b6102d56105cc565b60405165ffffffffffff9091168152602001610161565b6101546105d5565b610191610302366004611996565b6105e4565b61017d610315366004611934565b610604565b61023a610328366004611a6c565b610611565b61023a61033b366004611ac0565b6106d2565b61019161034e366004611b26565b6001600160a01b039182165f90815260016020908152604080832093909416825291909152205490565b61038b610386366004611b57565b610808565b60408051825165ffffffffffff1681526020928301516001600160d01b03169281019290925201610161565b6060600380546103c690611b94565b80601f01602080910402602001604051908101604052809291908181526020018280546103f290611b94565b801561043d5780601f106104145761010080835404028352916020019161043d565b820191905f5260205f20905b81548152906001019060200180831161042057829003601f168201915b5050505050905090565b5f33610454818585610842565b60019150505b92915050565b5f3361046d858285610854565b6104788585856108d0565b506001949350505050565b5f61048c61092d565b905090565b5f6104bb61049e83610a56565b6001600160a01b0385165f90815260096020526040902090610aa4565b6001600160d01b03169392505050565b60606104d5610b54565b65ffffffffffff166104e56105cc565b65ffffffffffff161461050b576040516301bfc1c560e61b815260040160405180910390fd5b5060408051808201909152601d81527f6d6f64653d626c6f636b6e756d6265722666726f6d3d64656661756c74000000602082015290565b3361054e8183610b5e565b5050565b5f61045a82610bcf565b5f61045a82610bf0565b5f6060805f5f5f6060610577610c0d565b61057f610c3a565b604080515f80825260208201909252600f60f81b9b939a50919850469750309650945092509050565b5f6105bd6105b583610a56565b600a90610aa4565b6001600160d01b031692915050565b5f61048c610b54565b6060600480546103c690611b94565b6001600160a01b0381165f9081526009602052604081206105bd90610c67565b5f336104548185856108d0565b8342111561063a57604051632341d78760e11b8152600481018590526024015b60405180910390fd5b604080517fe48329057bfd03d55e49b547132e39cffd9c1820ad7b9d4c5307691425d15adf60208201526001600160a01b0388169181019190915260608101869052608081018590525f906106b3906106ab9060a00160405160208183030381529060405280519060200120610c9e565b858585610cca565b90506106bf8187610cf6565b6106c98188610b5e565b50505050505050565b834211156106f65760405163313c898160e11b815260048101859052602401610631565b5f7f6e71edae12b1b97f4d1f60370fef10105fa2faae0126114a169c64845d6126c98888886107418c6001600160a01b03165f90815260076020526040902080546001810190915590565b6040805160208101969096526001600160a01b0394851690860152929091166060840152608083015260a082015260c0810186905260e0016040516020818303038152906040528051906020012090505f61079b82610c9e565b90505f6107aa82878787610cca565b9050896001600160a01b0316816001600160a01b0316146107f1576040516325c0072360e11b81526001600160a01b0380831660048301528b166024820152604401610631565b6107fc8a8a8a610842565b50505050505050505050565b604080518082019091525f80825260208201526108258383610d48565b9392505050565b5f6108258284611be0565b5f6108258284611bff565b61084f8383836001610d7c565b505050565b6001600160a01b038381165f908152600160209081526040808320938616835292905220545f198110156108ca57818110156108bc57604051637dc7a0d960e11b81526001600160a01b03841660048201526024810182905260448101839052606401610631565b6108ca84848484035f610d7c565b50505050565b6001600160a01b0383166108f957604051634b637e8f60e11b81525f6004820152602401610631565b6001600160a01b0382166109225760405163ec442f0560e01b81525f6004820152602401610631565b61084f838383610e4e565b5f306001600160a01b037f00000000000000000000000000000000000000000000000000000000000000001614801561098557507f000000000000000000000000000000000000000000000000000000000000000046145b156109af57507f000000000000000000000000000000000000000000000000000000000000000090565b61048c604080517f8b73c3c69bb8fe3d512ecc4cf759cc79239f7b179b0ffacaa9a75d522b39400f60208201527f0000000000000000000000000000000000000000000000000000000000000000918101919091527f000000000000000000000000000000000000000000000000000000000000000060608201524660808201523060a08201525f9060c00160405160208183030381529060405280519060200120905090565b5f5f610a606105cc565b90508065ffffffffffff168310610a9b57604051637669fc0f60e11b81526004810184905265ffffffffffff82166024820152604401610631565b61082583610e59565b81545f9081816005811115610b00575f610abd84610e8f565b610ac79085611c1e565b5f8881526020902090915081015465ffffffffffff9081169087161015610af057809150610afe565b610afb816001611c31565b92505b505b5f610b0d87878585610fe7565b90508015610b4757610b3187610b24600184611c1e565b5f91825260209091200190565b54600160301b90046001600160d01b0316610b49565b5f5b979650505050505050565b5f61048c43610e59565b6001600160a01b038281165f8181526008602052604080822080548686166001600160a01b0319821681179092559151919094169392849290917f3134e8a2e6d97e929a7e54011ea5485d7d196dd5f0ba4d4ef95803e8e3fc257f9190a461084f8183610bca86611046565b611063565b6001600160a01b0381165f9081526009602052604081205461045a906111cc565b6001600160a01b0381165f9081526007602052604081205461045a565b606061048c7f000000000000000000000000000000000000000000000000000000000000000060056111fc565b606061048c7f000000000000000000000000000000000000000000000000000000000000000060066111fc565b80545f908015610c9657610c8083610b24600184611c1e565b54600160301b90046001600160d01b0316610825565b5f9392505050565b5f61045a610caa61092d565b8360405161190160f01b8152600281019290925260228201526042902090565b5f5f5f5f610cda888888886112a5565b925092509250610cea828261136d565b50909695505050505050565b6001600160a01b0382165f90815260076020526040902080546001810190915581811461084f576040516301d4b62360e61b81526001600160a01b038416600482015260248101829052604401610631565b604080518082019091525f80825260208201526001600160a01b0383165f9081526009602052604090206108259083611425565b6001600160a01b038416610da55760405163e602df0560e01b81525f6004820152602401610631565b6001600160a01b038316610dce57604051634a1406b160e11b81525f6004820152602401610631565b6001600160a01b038085165f90815260016020908152604080832093871683529290522082905580156108ca57826001600160a01b0316846001600160a01b03167f8c5be1e5ebec7d5bd14f71427d1e84f3dd0314c0f7b2291e5b200ac8c7c3b92584604051610e4091815260200190565b60405180910390a350505050565b61084f838383611492565b5f65ffffffffffff821115610e8b576040516306dfcc6560e41b81526030600482015260248101839052604401610631565b5090565b5f60018211610e9c575090565b816001600160801b8210610eb55760809190911c9060401b5b680100000000000000008210610ed05760409190911c9060201b5b6401000000008210610ee75760209190911c9060101b5b620100008210610efc5760109190911c9060081b5b6101008210610f105760089190911c9060041b5b60108210610f235760049190911c9060021b5b60048210610f2f5760011b5b600302600190811c90818581610f4757610f47611c44565b048201901c90506001818581610f5f57610f5f611c44565b048201901c90506001818581610f7757610f77611c44565b048201901c90506001818581610f8f57610f8f611c44565b048201901c90506001818581610fa757610fa7611c44565b048201901c90506001818581610fbf57610fbf611c44565b048201901c9050610fde818581610fd857610fd8611c44565b04821190565b90039392505050565b5f5b8183101561103e575f610ffc84846114f8565b5f8781526020902090915065ffffffffffff86169082015465ffffffffffff16111561102a57809250611038565b611035816001611c31565b93505b50610fe9565b509392505050565b6001600160a01b0381165f9081526020819052604081205461045a565b816001600160a01b0316836001600160a01b03161415801561108457505f81115b1561084f576001600160a01b0383161561112b576001600160a01b0383165f90815260096020526040812081906110c6906108376110c186611512565b611545565b6001600160d01b031691506001600160d01b03169150846001600160a01b03167fdec2bacdd2f05b59de34da9b523dff8be42e5e38e818c82fdb0bae774387a7248383604051611120929190918252602082015260400190565b60405180910390a250505b6001600160a01b0382161561084f576001600160a01b0382165f90815260096020526040812081906111639061082c6110c186611512565b6001600160d01b031691506001600160d01b03169150836001600160a01b03167fdec2bacdd2f05b59de34da9b523dff8be42e5e38e818c82fdb0bae774387a72483836040516111bd929190918252602082015260400190565b60405180910390a25050505050565b5f63ffffffff821115610e8b576040516306dfcc6560e41b81526020600482015260248101839052604401610631565b606060ff83146112165761120f8361157d565b905061045a565b81805461122290611b94565b80601f016020809104026020016040519081016040528092919081815260200182805461124e90611b94565b80156112995780601f1061127057610100808354040283529160200191611299565b820191905f5260205f20905b81548152906001019060200180831161127c57829003601f168201915b5050505050905061045a565b5f80807f7fffffffffffffffffffffffffffffff5d576e7357a4501ddfe92f46681b20a08411156112de57505f91506003905082611363565b604080515f808252602082018084528a905260ff891692820192909252606081018790526080810186905260019060a0016020604051602081039080840390855afa15801561132f573d5f5f3e3d5ffd5b5050604051601f1901519150506001600160a01b03811661135a57505f925060019150829050611363565b92505f91508190505b9450945094915050565b5f82600381111561138057611380611c58565b03611389575050565b600182600381111561139d5761139d611c58565b036113bb5760405163f645eedf60e01b815260040160405180910390fd5b60028260038111156113cf576113cf611c58565b036113f05760405163fce698f760e01b815260048101829052602401610631565b600382600381111561140457611404611c58565b0361054e576040516335e2f38360e21b815260048101829052602401610631565b604080518082019091525f8082526020820152825f018263ffffffff168154811061145257611452611c6c565b5f9182526020918290206040805180820190915291015465ffffffffffff81168252600160301b90046001600160d01b0316918101919091529392505050565b61149d8383836115ba565b6001600160a01b0383166114ed575f6114b560025490565b90506001600160d01b03808211156114ea57604051630e58ae9360e11b81526004810183905260248101829052604401610631565b50505b61084f8383836116e0565b5f6115066002848418611c80565b61082590848416611c31565b5f6001600160d01b03821115610e8b576040516306dfcc6560e41b815260d0600482015260248101839052604401610631565b5f5f6115706115526105cc565b61156861155e88610c67565b868863ffffffff16565b879190611755565b915091505b935093915050565b60605f61158983611762565b6040805160208082528183019092529192505f91906020820181803683375050509182525060208101929092525090565b6001600160a01b0383166115e4578060025f8282546115d99190611c31565b909155506116549050565b6001600160a01b0383165f90815260208190526040902054818110156116365760405163391434e360e21b81526001600160a01b03851660048201526024810182905260448101839052606401610631565b6001600160a01b0384165f9081526020819052604090209082900390555b6001600160a01b0382166116705760028054829003905561168e565b6001600160a01b0382165f9081526020819052604090208054820190555b816001600160a01b0316836001600160a01b03167fddf252ad1be2c89b69c2b068fc378daa952ba7f163c4a11628f55a4df523b3ef836040516116d391815260200190565b60405180910390a3505050565b6001600160a01b038316611702576116ff600a61082c6110c184611512565b50505b6001600160a01b03821661172457611721600a6108376110c184611512565b50505b6001600160a01b038381165f9081526008602052604080822054858416835291205461084f92918216911683611063565b5f80611570858585611789565b5f60ff8216601f81111561045a57604051632cd44ac360e21b815260040160405180910390fd5b82545f908190801561187f575f6117a587610b24600185611c1e565b805490915065ffffffffffff80821691600160301b90046001600160d01b03169088168211156117e857604051632520601d60e01b815260040160405180910390fd5b8765ffffffffffff168265ffffffffffff160361182157825465ffffffffffff16600160301b6001600160d01b03891602178355611871565b6040805180820190915265ffffffffffff808a1682526001600160d01b03808a1660208085019182528d54600181018f555f8f81529190912094519151909216600160301b029216919091179101555b945085935061157592505050565b50506040805180820190915265ffffffffffff80851682526001600160d01b0380851660208085019182528854600181018a555f8a815291822095519251909316600160301b029190931617920191909155905081611575565b5f81518084528060208401602086015e5f602082860101526020601f19601f83011685010191505092915050565b602081525f61082560208301846118d9565b80356001600160a01b038116811461192f575f5ffd5b919050565b5f5f60408385031215611945575f5ffd5b61194e83611919565b946020939093013593505050565b5f5f5f6060848603121561196e575f5ffd5b61197784611919565b925061198560208501611919565b929592945050506040919091013590565b5f602082840312156119a6575f5ffd5b61082582611919565b60ff60f81b8816815260e060208201525f6119cd60e08301896118d9565b82810360408401526119df81896118d9565b606084018890526001600160a01b038716608085015260a0840186905283810360c0850152845180825260208087019350909101905f5b81811015611a34578351835260209384019390920191600101611a16565b50909b9a5050505050505050505050565b5f60208284031215611a55575f5ffd5b5035919050565b803560ff8116811461192f575f5ffd5b5f5f5f5f5f5f60c08789031215611a81575f5ffd5b611a8a87611919565b95506020870135945060408701359350611aa660608801611a5c565b9598949750929560808101359460a0909101359350915050565b5f5f5f5f5f5f5f60e0888a031215611ad6575f5ffd5b611adf88611919565b9650611aed60208901611919565b95506040880135945060608801359350611b0960808901611a5c565b9699959850939692959460a0840135945060c09093013592915050565b5f5f60408385031215611b37575f5ffd5b611b4083611919565b9150611b4e60208401611919565b90509250929050565b5f5f60408385031215611b68575f5ffd5b611b7183611919565b9150602083013563ffffffff81168114611b89575f5ffd5b809150509250929050565b600181811c90821680611ba857607f821691505b602082108103611bc657634e487b7160e01b5f52602260045260245ffd5b50919050565b634e487b7160e01b5f52601160045260245ffd5b6001600160d01b03818116838216019081111561045a5761045a611bcc565b6001600160d01b03828116828216039081111561045a5761045a611bcc565b8181038181111561045a5761045a611bcc565b8082018082111561045a5761045a611bcc565b634e487b7160e01b5f52601260045260245ffd5b634e487b7160e01b5f52602160045260245ffd5b634e487b7160e01b5f52603260045260245ffd5b5f82611c9a57634e487b7160e01b5f52601260045260245ffd5b50049056fea26469706673582212207ac1e036339113be8662ef5f174bdcbf09083096be4c72f11a5b076c0d85419664736f6c634300081e0033dec2bacdd2f05b59de34da9b523dff8be42e5e38e818c82fdb0bae774387a724",
    "linkReferences": {}
  },
  "methodIdentifiers": {
    "CLOCK_MODE()": "4bf5d7e9",
    "DOMAIN_SEPARATOR()": "3644e515",
    "allowance(address,address)": "dd62ed3e",
    "approve(address,uint256)": "095ea7b3",
    "balanceOf(address)": "70a08231",
    "checkpoints(address,uint32)": "f1127ed8",
    "clock()": "91ddadf4",
    "decimals()": "313ce567",
    "delegate(address)": "5c19a95c",
    "delegateBySig(address,uint256,uint256,uint8,bytes32,bytes32)": "c3cda520",
    "delegates(address)": "587cde1e",
    "eip712Domain()": "84b0196e",
    "getPastTotalSupply(uint256)": "8e539e8c",
    "getPastVotes(address,uint256)": "3a46b1a8",
    "getVotes(address)": "9ab24eb0",
    "name()": "06fdde03",
    "nonces(address)": "7ecebe00",
    "numCheckpoints(address)": "6fcfff45",
    "permit(address,address,uint256,uint256,uint8,bytes32,bytes32)": "d505accf",
    "symbol()": "95d89b41",
    "totalSupply()": "18160ddd",
    "transfer(address,uint256)": "a9059cbb",
    "transferFrom(address,address,uint256)": "23b872dd"
  },
  "id": 82
}