{
  "abi": [
    {
      "type": "constructor",
      "inputs": [
        {
          "name": "priceFeed",
          "type": "address",
          "internalType": "address"
        }
      ],
      "stateMutability": "nonpayable"
    },
    {
      "type": "fallback",
      "stateMutability": "payable"
    },
    {
      "type": "receive",
      "stateMutability": "payable"
    },
    {
      "type": "function",
      "name": "MINIMUM_USD",
      "inputs": [],
      "outputs": [
        {
          "name": "",
          "type": "uint256",
          "internalType": "uint256"
        }
      ],
      "stateMutability": "view"
    },
    {
      "type": "function",
      "name": "fund",
      "inputs": [],
      "outputs": [],
      "stateMutability": "payable"
    },
    {
      "type": "function",
      "name": "getVersion",
      "inputs": [],
      "outputs": [
        {
          "name": "",
          "type": "uint256",
          "internalType": "uint256"
        }
      ],
      "stateMutability": "view"
    },
    {
      "type": "function",
      "name": "owner",
      "inputs": [],
      "outputs": [
        {
          "name": "",
          "type": "address",
          "internalType": "address"
        }
      ],
      "stateMutability": "view"
    },
    {
      "type": "function",
      "name": "renounceOwnership",
      "inputs": [],
      "outputs": [],
      "stateMutability": "nonpayable"
    },
    {
      "type": "function",
      "name": "transfer",
      "inputs": [
        {
          "name": "to",
          "type": "address",
          "internalType": "address"
        },
        {
          "name": "amount",
          "type": "uint256",
          "internalType": "uint256"
        }
      ],
      "outputs": [],
      "stateMutability": "nonpayable"
    },
    {
      "type": "function",
      "name": "transferOwnership",
      "inputs": [
        {
          "name": "newOwner",
          "type": "address",
          "internalType": "address"
        }
      ],
      "outputs": [],
      "stateMutability": "nonpayable"
    },
    {
      "type": "function",
      "name": "withdraw",
      "inputs": [],
      "outputs": [],
      "stateMutability": "nonpayable"
    },
    {
      "type": "event",
      "name": "OwnershipTransferred",
      "inputs": [
        {
          "name": "previousOwner",
          "type": "address",
          "indexed": true,
          "internalType": "address"
        },
        {
          "name": "newOwner",
          "type": "address",
          "indexed": true,
          "internalType": "address"
        }
      ],
      "anonymous": false
    },
    {
      "type": "error",
      "name": "OwnableInvalidOwner",
      "inputs": [
        {
          "name": "owner",
          "type": "address",
          "internalType": "address"
        }
      ]
    },
    {
      "type": "error",
      "name": "OwnableUnauthorizedAccount",
      "inputs": [
        {
          "name": "account",
          "type": "address",
          "internalType": "address"
        }
      ]
    }
  ],
  "bytecode": {
    "object": "0x608060405234801561000f575f5ffd5b506040516107e33803806107e383398101604081905261002e916100d1565b338061005357604051631e4fbdf760e01b81525f600482015260240160405180910390fd5b61005c81610082565b50600180546001600160a01b0319166001600160a01b03929092169190911790556100fe565b5f80546001600160a01b038381166001600160a01b0319831681178455604051919092169283917f8be0079c531659141344cd1fd0a4f28419497f9722a3daafe3b4186f6b6457e09190a35050565b5f602082840312156100e1575f5ffd5b81516001600160a01b03811681146100f7575f5ffd5b9392505050565b6106d88061010b5f395ff3fe60806040526004361061007e575f3560e01c80638da5cb5b1161004d5780638da5cb5b146100ff578063a9059cbb14610125578063b60d42881461008d578063f2fde38b146101445761008d565b80630d8e6e2c146100955780633ccfd60b146100bc5780636b69a592146100d0578063715018a6146100eb5761008d565b3661008d5761008b610163565b005b61008b610163565b3480156100a0575f5ffd5b506100a96101d9565b6040519081526020015b60405180910390f35b3480156100c7575f5ffd5b5061008b610249565b3480156100db575f5ffd5b506100a9674563918244f4000081565b3480156100f6575f5ffd5b5061008b6102d7565b34801561010a575f5ffd5b505f546040516001600160a01b0390911681526020016100b3565b348015610130575f5ffd5b5061008b61013f36600461056a565b6102e8565b34801561014f575f5ffd5b5061008b61015e366004610592565b6103e4565b600154674563918244f40000906101849034906001600160a01b031661041e565b10156101d75760405162461bcd60e51b815260206004820152601b60248201527f596f75206e65656420746f207370656e64206d6f72652045544821000000000060448201526064015b60405180910390fd5b565b6001546040805163054fd4d560e41b815290515f926001600160a01b0316916354fd4d509160048083019260209291908290030181865afa158015610220573d5f5f3e3d5ffd5b505050506040513d601f19601f8201168201806040525081019061024491906105ab565b905090565b610251610454565b6040515f90339047908381818185875af1925050503d805f8114610290576040519150601f19603f3d011682016040523d82523d5f602084013e610295565b606091505b50509050806102d45760405162461bcd60e51b815260206004820152600b60248201526a10d85b1b0819985a5b195960aa1b60448201526064016101ce565b50565b6102df610454565b6101d75f610480565b6102f0610454565b478111156103405760405162461bcd60e51b815260206004820152601e60248201527f54726561737572793a20496e73756666696369656e742062616c616e6365000060448201526064016101ce565b5f826001600160a01b0316826040515f6040518083038185875af1925050503d805f8114610389576040519150601f19603f3d011682016040523d82523d5f602084013e61038e565b606091505b50509050806103df5760405162461bcd60e51b815260206004820152601960248201527f54726561737572793a205472616e73666572206661696c65640000000000000060448201526064016101ce565b505050565b6103ec610454565b6001600160a01b03811661041557604051631e4fbdf760e01b81525f60048201526024016101ce565b6102d481610480565b5f5f610429836104cf565b90505f670de0b6b3a764000061043f86846105d6565b61044991906105ed565b925050505b92915050565b5f546001600160a01b031633146101d75760405163118cdaa760e01b81523360048201526024016101ce565b5f80546001600160a01b038381166001600160a01b0319831681178455604051919092169283917f8be0079c531659141344cd1fd0a4f28419497f9722a3daafe3b4186f6b6457e09190a35050565b5f5f826001600160a01b031663feaf968c6040518163ffffffff1660e01b815260040160a060405180830381865afa15801561050d573d5f5f3e3d5ffd5b505050506040513d601f19601f820116820180604052508101906105319190610625565b505050915050806402540be4006105489190610673565b9392505050565b80356001600160a01b0381168114610565575f5ffd5b919050565b5f5f6040838503121561057b575f5ffd5b6105848361054f565b946020939093013593505050565b5f602082840312156105a2575f5ffd5b6105488261054f565b5f602082840312156105bb575f5ffd5b5051919050565b634e487b7160e01b5f52601160045260245ffd5b808202811582820484141761044e5761044e6105c2565b5f8261060757634e487b7160e01b5f52601260045260245ffd5b500490565b805169ffffffffffffffffffff81168114610565575f5ffd5b5f5f5f5f5f60a08688031215610639575f5ffd5b6106428661060c565b602087015160408801516060890151929750909550935091506106676080870161060c565b90509295509295909350565b8082025f8212600160ff1b8414161561068e5761068e6105c2565b818105831482151761044e5761044e6105c256fea2646970667358221220c067390cc5d1696f4c861fb876df9cd9abb6fe4ad17d8ce14a6b1fe071c5703a64736f6c634300081e0033",
    "linkReferences": {}
  },
  "methodIdentifiers": {
    "MINIMUM_USD()": "6b69a592",
    "fund()": "b60d4288",
    "getVersion()": "0d8e6e2c",
    "owner()": "8da5cb5b",
    "renounceOwnership()": "715018a6",
    "transfer(address,uint256)": "a9059cbb",
    "transferOwnership(address)": "f2fde38b",
    "withdraw()": "3ccfd60b"
  },
  "id": 83
}